{
  "contractName": "Marketplace",
  "abi": [
    {
      "constant": true,
      "inputs": [],
      "name": "zombieContract",
      "outputs": [
        {
          "name": "",
          "type": "address"
        }
      ],
      "payable": false,
      "stateMutability": "view",
      "type": "function"
    },
    {
      "constant": false,
      "inputs": [],
      "name": "renounceOwnership",
      "outputs": [],
      "payable": false,
      "stateMutability": "nonpayable",
      "type": "function"
    },
    {
      "constant": true,
      "inputs": [],
      "name": "owner",
      "outputs": [
        {
          "name": "",
          "type": "address"
        }
      ],
      "payable": false,
      "stateMutability": "view",
      "type": "function"
    },
    {
      "constant": true,
      "inputs": [],
      "name": "isOwner",
      "outputs": [
        {
          "name": "",
          "type": "bool"
        }
      ],
      "payable": false,
      "stateMutability": "view",
      "type": "function"
    },
    {
      "constant": true,
      "inputs": [
        {
          "name": "",
          "type": "uint256"
        }
      ],
      "name": "listings",
      "outputs": [
        {
          "name": "seller",
          "type": "address"
        },
        {
          "name": "price",
          "type": "uint256"
        }
      ],
      "payable": false,
      "stateMutability": "view",
      "type": "function"
    },
    {
      "constant": false,
      "inputs": [
        {
          "name": "newOwner",
          "type": "address"
        }
      ],
      "name": "transferOwnership",
      "outputs": [],
      "payable": false,
      "stateMutability": "nonpayable",
      "type": "function"
    },
    {
      "inputs": [
        {
          "name": "_zombieContractAddress",
          "type": "address"
        }
      ],
      "payable": false,
      "stateMutability": "nonpayable",
      "type": "constructor"
    },
    {
      "anonymous": false,
      "inputs": [
        {
          "indexed": true,
          "name": "previousOwner",
          "type": "address"
        },
        {
          "indexed": true,
          "name": "newOwner",
          "type": "address"
        }
      ],
      "name": "OwnershipTransferred",
      "type": "event"
    },
    {
      "constant": false,
      "inputs": [
        {
          "name": "_tokenId",
          "type": "uint256"
        },
        {
          "name": "_price",
          "type": "uint256"
        }
      ],
      "name": "listItem",
      "outputs": [],
      "payable": false,
      "stateMutability": "nonpayable",
      "type": "function"
    },
    {
      "constant": false,
      "inputs": [
        {
          "name": "_tokenId",
          "type": "uint256"
        }
      ],
      "name": "buyItem",
      "outputs": [],
      "payable": true,
      "stateMutability": "payable",
      "type": "function"
    },
    {
      "constant": false,
      "inputs": [
        {
          "name": "_tokenId",
          "type": "uint256"
        }
      ],
      "name": "cancelListing",
      "outputs": [],
      "payable": false,
      "stateMutability": "nonpayable",
      "type": "function"
    }
  ],
  "bytecode": "0x608060405234801561001057600080fd5b50604051602080610ea883398101806040528101908080519060200190929190505050336000806101000a81548173ffffffffffffffffffffffffffffffffffffffff021916908373ffffffffffffffffffffffffffffffffffffffff1602179055506000809054906101000a900473ffffffffffffffffffffffffffffffffffffffff1673ffffffffffffffffffffffffffffffffffffffff16600073ffffffffffffffffffffffffffffffffffffffff167f8be0079c531659141344cd1fd0a4f28419497f9722a3daafe3b4186f6b6457e060405160405180910390a380600260006101000a81548173ffffffffffffffffffffffffffffffffffffffff021916908373ffffffffffffffffffffffffffffffffffffffff16021790555050610d68806101406000396000f300608060405260043610610099576000357c0100000000000000000000000000000000000000000000000000000000900463ffffffff168063138d22ce1461009e578063305a67a8146100f5578063715018a614610122578063883efa67146101395780638da5cb5b146101705780638f32d59b146101c7578063de74e57b146101f6578063e7fb74c71461026a578063f2fde38b1461028a575b600080fd5b3480156100aa57600080fd5b506100b36102cd565b604051808273ffffffffffffffffffffffffffffffffffffffff1673ffffffffffffffffffffffffffffffffffffffff16815260200191505060405180910390f35b34801561010157600080fd5b50610120600480360381019080803590602001909291905050506102f3565b005b34801561012e57600080fd5b50610137610491565b005b34801561014557600080fd5b5061016e6004803603810190808035906020019092919080359060200190929190505050610563565b005b34801561017c57600080fd5b50610185610805565b604051808273ffffffffffffffffffffffffffffffffffffffff1673ffffffffffffffffffffffffffffffffffffffff16815260200191505060405180910390f35b3480156101d357600080fd5b506101dc61082e565b604051808215151515815260200191505060405180910390f35b34801561020257600080fd5b5061022160048036038101908080359060200190929190505050610885565b604051808373ffffffffffffffffffffffffffffffffffffffff1673ffffffffffffffffffffffffffffffffffffffff1681526020018281526020019250505060405180910390f35b610288600480360381019080803590602001909291905050506108c9565b005b34801561029657600080fd5b506102cb600480360381019080803573ffffffffffffffffffffffffffffffffffffffff169060200190929190505050610bf3565b005b600260009054906101000a900473ffffffffffffffffffffffffffffffffffffffff1681565b6102fb610d0c565b600160008381526020019081526020016000206040805190810160405290816000820160009054906101000a900473ffffffffffffffffffffffffffffffffffffffff1673ffffffffffffffffffffffffffffffffffffffff1673ffffffffffffffffffffffffffffffffffffffff16815260200160018201548152505090503373ffffffffffffffffffffffffffffffffffffffff16816000015173ffffffffffffffffffffffffffffffffffffffff16141515610448576040517f08c379a00000000000000000000000000000000000000000000000000000000081526004018080602001828103825260248152602001807f596f7520617265206e6f74207468652073656c6c6572206f662074686973206981526020017f74656d2e0000000000000000000000000000000000000000000000000000000081525060400191505060405180910390fd5b60016000838152602001908152602001600020600080820160006101000a81549073ffffffffffffffffffffffffffffffffffffffff0219169055600182016000905550505050565b61049961082e565b15156104a457600080fd5b600073ffffffffffffffffffffffffffffffffffffffff166000809054906101000a900473ffffffffffffffffffffffffffffffffffffffff1673ffffffffffffffffffffffffffffffffffffffff167f8be0079c531659141344cd1fd0a4f28419497f9722a3daafe3b4186f6b6457e060405160405180910390a360008060006101000a81548173ffffffffffffffffffffffffffffffffffffffff021916908373ffffffffffffffffffffffffffffffffffffffff160217905550565b3373ffffffffffffffffffffffffffffffffffffffff16600260009054906101000a900473ffffffffffffffffffffffffffffffffffffffff1673ffffffffffffffffffffffffffffffffffffffff16636352211e846040518263ffffffff167c010000000000000000000000000000000000000000000000000000000002815260040180828152602001915050602060405180830381600087803b15801561060b57600080fd5b505af115801561061f573d6000803e3d6000fd5b505050506040513d602081101561063557600080fd5b810190808051906020019092919050505073ffffffffffffffffffffffffffffffffffffffff161415156106f7576040517f08c379a00000000000000000000000000000000000000000000000000000000081526004018080602001828103825260258152602001807f596f7520617265206e6f7420746865206f776e6572206f662074686973207a6f81526020017f6d6269652e00000000000000000000000000000000000000000000000000000081525060400191505060405180910390fd5b60008111151561076f576040517f08c379a000000000000000000000000000000000000000000000000000000000815260040180806020018281038252601d8152602001807f5072696365206d7573742062652067726561746572207468616e20302e00000081525060200191505060405180910390fd5b60408051908101604052803373ffffffffffffffffffffffffffffffffffffffff168152602001828152506001600084815260200190815260200160002060008201518160000160006101000a81548173ffffffffffffffffffffffffffffffffffffffff021916908373ffffffffffffffffffffffffffffffffffffffff160217905550602082015181600101559050505050565b60008060009054906101000a900473ffffffffffffffffffffffffffffffffffffffff16905090565b60008060009054906101000a900473ffffffffffffffffffffffffffffffffffffffff1673ffffffffffffffffffffffffffffffffffffffff163373ffffffffffffffffffffffffffffffffffffffff1614905090565b60016020528060005260406000206000915090508060000160009054906101000a900473ffffffffffffffffffffffffffffffffffffffff16908060010154905082565b6108d1610d0c565b6000600160008481526020019081526020016000206040805190810160405290816000820160009054906101000a900473ffffffffffffffffffffffffffffffffffffffff1673ffffffffffffffffffffffffffffffffffffffff1673ffffffffffffffffffffffffffffffffffffffff1681526020016001820154815250509150600082602001511115156109cf576040517f08c379a000000000000000000000000000000000000000000000000000000000815260040180806020018281038252601a8152602001807f54686973206974656d206973206e6f7420666f722073616c652e00000000000081525060200191505060405180910390fd5b816020015134141515610a4a576040517f08c379a00000000000000000000000000000000000000000000000000000000081526004018080602001828103825260108152602001807f496e636f72726563742070726963652e0000000000000000000000000000000081525060200191505060405180910390fd5b8160000151905060016000848152602001908152602001600020600080820160006101000a81549073ffffffffffffffffffffffffffffffffffffffff0219169055600182016000905550508073ffffffffffffffffffffffffffffffffffffffff166108fc349081150290604051600060405180830381858888f19350505050158015610adc573d6000803e3d6000fd5b50600260009054906101000a900473ffffffffffffffffffffffffffffffffffffffff1673ffffffffffffffffffffffffffffffffffffffff166323b872dd8233866040518463ffffffff167c0100000000000000000000000000000000000000000000000000000000028152600401808473ffffffffffffffffffffffffffffffffffffffff1673ffffffffffffffffffffffffffffffffffffffff1681526020018373ffffffffffffffffffffffffffffffffffffffff1673ffffffffffffffffffffffffffffffffffffffff1681526020018281526020019350505050600060405180830381600087803b158015610bd657600080fd5b505af1158015610bea573d6000803e3d6000fd5b50505050505050565b610bfb61082e565b1515610c0657600080fd5b610c0f81610c12565b50565b600073ffffffffffffffffffffffffffffffffffffffff168173ffffffffffffffffffffffffffffffffffffffff1614151515610c4e57600080fd5b8073ffffffffffffffffffffffffffffffffffffffff166000809054906101000a900473ffffffffffffffffffffffffffffffffffffffff1673ffffffffffffffffffffffffffffffffffffffff167f8be0079c531659141344cd1fd0a4f28419497f9722a3daafe3b4186f6b6457e060405160405180910390a3806000806101000a81548173ffffffffffffffffffffffffffffffffffffffff021916908373ffffffffffffffffffffffffffffffffffffffff16021790555050565b6040805190810160405280600073ffffffffffffffffffffffffffffffffffffffff1681526020016000815250905600a165627a7a723058204eaa7d8e92d30fbe06722bf165e7b6548585d30d3256114ba12b7ddeea2d205a0029",
  "source": "pragma solidity ^0.4.25;\n\nimport \"./ownable.sol\";\nimport \"./zombieownership.sol\";\n\ncontract Marketplace is Ownable {\n\n    struct Listing {\n        address seller;\n        uint256 price;\n    }\n\n    mapping(uint256 => Listing) public listings;\n\n    ZombieOwnership public zombieContract;\n\n    constructor(address _zombieContractAddress) public {\n        zombieContract = ZombieOwnership(_zombieContractAddress);\n    }\n\n    function listItem(uint256 _tokenId, uint256 _price) external {\n        require(zombieContract.ownerOf(_tokenId) == msg.sender, \"You are not the owner of this zombie.\");\n        require(_price > 0, \"Price must be greater than 0.\");\n\n        listings[_tokenId] = Listing(msg.sender, _price);\n    }\n\n    function buyItem(uint256 _tokenId) external payable {\n        Listing memory listing = listings[_tokenId];\n        require(listing.price > 0, \"This item is not for sale.\");\n        require(msg.value == listing.price, \"Incorrect price.\");\n\n        address seller = listing.seller;\n        delete listings[_tokenId];\n\n        seller.transfer(msg.value);\n        zombieContract.transferFrom(seller, msg.sender, _tokenId);\n    }\n\n    function cancelListing(uint256 _tokenId) external {\n        Listing memory listing = listings[_tokenId];\n        require(listing.seller == msg.sender, \"You are not the seller of this item.\");\n\n        delete listings[_tokenId];\n    }\n}\n",
  "sourcePath": "/Users/csuftitan/Documents/Cryptozombie demo package 2/contracts/marketplace.sol",
  "compiler": {
    "name": "solc",
    "version": "0.4.25+commit.59dbf8f1.Emscripten.clang"
  },
  "schemaVersion": "3.4.16",
  "updatedAt": "2025-10-19T10:10:39.851Z",
  "networkType": "ethereum",
  "devdoc": {
    "methods": {
      "isOwner()": {
        "return": "true if `msg.sender` is the owner of the contract."
      },
      "owner()": {
        "return": "the address of the owner."
      },
      "renounceOwnership()": {
        "details": "Allows the current owner to relinquish control of the contract."
      },
      "transferOwnership(address)": {
        "details": "Allows the current owner to transfer control of the contract to a newOwner.",
        "params": {
          "newOwner": "The address to transfer ownership to."
        }
      }
    }
  },
  "userdoc": {
    "methods": {
      "renounceOwnership()": {
        "notice": "Renouncing to ownership will leave the contract without an owner. It will not be possible to call the functions with the `onlyOwner` modifier anymore."
      }
    }
  }
}