{
  "contractName": "ZombieHelper",
  "abi": [
    {
      "constant": false,
      "inputs": [
        {
          "name": "_approved",
          "type": "address"
        },
        {
          "name": "_tokenId",
          "type": "uint256"
        }
      ],
      "name": "approve",
      "outputs": [],
      "payable": true,
      "stateMutability": "payable",
      "type": "function"
    },
    {
      "constant": true,
      "inputs": [
        {
          "name": "",
          "type": "uint256"
        }
      ],
      "name": "zombies",
      "outputs": [
        {
          "name": "name",
          "type": "string"
        },
        {
          "name": "dna",
          "type": "uint256"
        },
        {
          "name": "level",
          "type": "uint256"
        },
        {
          "name": "experience",
          "type": "uint256"
        },
        {
          "name": "winCount",
          "type": "uint256"
        },
        {
          "name": "lossCount",
          "type": "uint256"
        },
        {
          "name": "readyTime",
          "type": "uint32"
        },
        {
          "name": "ability",
          "type": "uint8"
        }
      ],
      "payable": false,
      "stateMutability": "view",
      "type": "function"
    },
    {
      "constant": false,
      "inputs": [
        {
          "name": "_from",
          "type": "address"
        },
        {
          "name": "_to",
          "type": "address"
        },
        {
          "name": "_tokenId",
          "type": "uint256"
        }
      ],
      "name": "transferFrom",
      "outputs": [],
      "payable": true,
      "stateMutability": "payable",
      "type": "function"
    },
    {
      "constant": true,
      "inputs": [
        {
          "name": "",
          "type": "uint256"
        }
      ],
      "name": "zombieToOwner",
      "outputs": [
        {
          "name": "",
          "type": "address"
        }
      ],
      "payable": false,
      "stateMutability": "view",
      "type": "function"
    },
    {
      "constant": true,
      "inputs": [
        {
          "name": "_tokenId",
          "type": "uint256"
        }
      ],
      "name": "ownerOf",
      "outputs": [
        {
          "name": "",
          "type": "address"
        }
      ],
      "payable": false,
      "stateMutability": "view",
      "type": "function"
    },
    {
      "constant": true,
      "inputs": [
        {
          "name": "_owner",
          "type": "address"
        }
      ],
      "name": "balanceOf",
      "outputs": [
        {
          "name": "",
          "type": "uint256"
        }
      ],
      "payable": false,
      "stateMutability": "view",
      "type": "function"
    },
    {
      "constant": false,
      "inputs": [],
      "name": "renounceOwnership",
      "outputs": [],
      "payable": false,
      "stateMutability": "nonpayable",
      "type": "function"
    },
    {
      "constant": false,
      "inputs": [
        {
          "name": "_name",
          "type": "string"
        }
      ],
      "name": "createRandomZombie",
      "outputs": [],
      "payable": false,
      "stateMutability": "nonpayable",
      "type": "function"
    },
    {
      "constant": true,
      "inputs": [],
      "name": "owner",
      "outputs": [
        {
          "name": "",
          "type": "address"
        }
      ],
      "payable": false,
      "stateMutability": "view",
      "type": "function"
    },
    {
      "constant": false,
      "inputs": [
        {
          "name": "_newOwner",
          "type": "address"
        }
      ],
      "name": "transferOwnership",
      "outputs": [],
      "payable": false,
      "stateMutability": "nonpayable",
      "type": "function"
    },
    {
      "anonymous": false,
      "inputs": [
        {
          "indexed": true,
          "name": "_from",
          "type": "address"
        },
        {
          "indexed": true,
          "name": "_to",
          "type": "address"
        },
        {
          "indexed": true,
          "name": "_tokenId",
          "type": "uint256"
        }
      ],
      "name": "Transfer",
      "type": "event"
    },
    {
      "anonymous": false,
      "inputs": [
        {
          "indexed": true,
          "name": "_owner",
          "type": "address"
        },
        {
          "indexed": true,
          "name": "_approved",
          "type": "address"
        },
        {
          "indexed": true,
          "name": "_tokenId",
          "type": "uint256"
        }
      ],
      "name": "Approval",
      "type": "event"
    },
    {
      "anonymous": false,
      "inputs": [
        {
          "indexed": false,
          "name": "zombieId",
          "type": "uint256"
        },
        {
          "indexed": false,
          "name": "name",
          "type": "string"
        },
        {
          "indexed": false,
          "name": "dna",
          "type": "uint256"
        }
      ],
      "name": "NewZombie",
      "type": "event"
    },
    {
      "anonymous": false,
      "inputs": [
        {
          "indexed": true,
          "name": "previousOwner",
          "type": "address"
        }
      ],
      "name": "OwnershipRenounced",
      "type": "event"
    },
    {
      "anonymous": false,
      "inputs": [
        {
          "indexed": true,
          "name": "previousOwner",
          "type": "address"
        },
        {
          "indexed": true,
          "name": "newOwner",
          "type": "address"
        }
      ],
      "name": "OwnershipTransferred",
      "type": "event"
    },
    {
      "constant": false,
      "inputs": [],
      "name": "withdraw",
      "outputs": [],
      "payable": false,
      "stateMutability": "nonpayable",
      "type": "function"
    },
    {
      "constant": false,
      "inputs": [
        {
          "name": "_fee",
          "type": "uint256"
        }
      ],
      "name": "setLevelUpFee",
      "outputs": [],
      "payable": false,
      "stateMutability": "nonpayable",
      "type": "function"
    },
    {
      "constant": false,
      "inputs": [
        {
          "name": "_zombieId",
          "type": "uint256"
        }
      ],
      "name": "levelUp",
      "outputs": [],
      "payable": true,
      "stateMutability": "payable",
      "type": "function"
    },
    {
      "constant": false,
      "inputs": [
        {
          "name": "_zombieId",
          "type": "uint256"
        },
        {
          "name": "_newName",
          "type": "string"
        }
      ],
      "name": "changeName",
      "outputs": [],
      "payable": false,
      "stateMutability": "nonpayable",
      "type": "function"
    },
    {
      "constant": false,
      "inputs": [
        {
          "name": "_zombieId",
          "type": "uint256"
        },
        {
          "name": "_newDna",
          "type": "uint256"
        }
      ],
      "name": "changeDna",
      "outputs": [],
      "payable": false,
      "stateMutability": "nonpayable",
      "type": "function"
    },
    {
      "constant": true,
      "inputs": [
        {
          "name": "_owner",
          "type": "address"
        }
      ],
      "name": "getZombiesByOwner",
      "outputs": [
        {
          "name": "",
          "type": "uint256[]"
        }
      ],
      "payable": false,
      "stateMutability": "view",
      "type": "function"
    },
    {
      "constant": true,
      "inputs": [],
      "name": "getAllZombies",
      "outputs": [
        {
          "name": "",
          "type": "uint256[]"
        }
      ],
      "payable": false,
      "stateMutability": "view",
      "type": "function"
    }
  ],
  "bytecode": "0x60806040526010600155600154600a0a600255600160035566038d7ea4c68000600855655af3107a4000600955336000806101000a81548173ffffffffffffffffffffffffffffffffffffffff021916908373ffffffffffffffffffffffffffffffffffffffff16021790555061196d8061007b6000396000f3006080604052600436106100f1576000357c0100000000000000000000000000000000000000000000000000000000900463ffffffff168063095ea7b3146100f65780630ce90ec2146101365780632052465e1461015657806323b872dd146102475780633ccfd60b146102a75780634412e104146102be578063528b7b8f146103565780635faf2880146103c35780636352211e146103fa57806370a0823114610467578063715018a6146104be5780637bff0a01146104d55780638da5cb5b1461053e578063ab170a6d14610595578063c39cbef114610601578063ccf670f814610646578063f2fde38b14610673575b600080fd5b610134600480360381019080803573ffffffffffffffffffffffffffffffffffffffff169060200190929190803590602001909291905050506106b6565b005b610154600480360381019080803590602001909291905050506107d6565b005b34801561016257600080fd5b5061018160048036038101908080359060200190929190505050610841565b60405180806020018981526020018881526020018781526020018681526020018581526020018463ffffffff1663ffffffff1681526020018360038111156101c557fe5b60ff16815260200182810382528a818151815260200191508051906020019080838360005b838110156102055780820151818401526020810190506101ea565b50505050905090810190601f1680156102325780820380516001836020036101000a031916815260200191505b50995050505050505050505060405180910390f35b6102a5600480360381019080803573ffffffffffffffffffffffffffffffffffffffff169060200190929190803573ffffffffffffffffffffffffffffffffffffffff1690602001909291908035906020019092919050505061094d565b005b3480156102b357600080fd5b506102bc610a33565b005b3480156102ca57600080fd5b506102ff600480360381019080803573ffffffffffffffffffffffffffffffffffffffff169060200190929190505050610b15565b6040518080602001828103825283818151815260200191508051906020019060200280838360005b83811015610342578082015181840152602081019050610327565b505050509050019250505060405180910390f35b34801561036257600080fd5b5061038160048036038101908080359060200190929190505050610c47565b604051808273ffffffffffffffffffffffffffffffffffffffff1673ffffffffffffffffffffffffffffffffffffffff16815260200191505060405180910390f35b3480156103cf57600080fd5b506103f86004803603810190808035906020019092919080359060200190929190505050610c7a565b005b34801561040657600080fd5b5061042560048036038101908080359060200190929190505050610d46565b604051808273ffffffffffffffffffffffffffffffffffffffff1673ffffffffffffffffffffffffffffffffffffffff16815260200191505060405180910390f35b34801561047357600080fd5b506104a8600480360381019080803573ffffffffffffffffffffffffffffffffffffffff169060200190929190505050610d83565b6040518082815260200191505060405180910390f35b3480156104ca57600080fd5b506104d3610dcc565b005b3480156104e157600080fd5b5061053c600480360381019080803590602001908201803590602001908080601f0160208091040260200160405190810160405280939291908181526020018383808284378201915050505050509192919290505050610ece565b005b34801561054a57600080fd5b50610553610efa565b604051808273ffffffffffffffffffffffffffffffffffffffff1673ffffffffffffffffffffffffffffffffffffffff16815260200191505060405180910390f35b3480156105a157600080fd5b506105aa610f1f565b6040518080602001828103825283818151815260200191508051906020019060200280838360005b838110156105ed5780820151818401526020810190506105d2565b505050509050019250505060405180910390f35b34801561060d57600080fd5b5061064460048036038101908080359060200190929190803590602001908201803590602001919091929391929390505050610f9f565b005b34801561065257600080fd5b5061067160048036038101908080359060200190929190505050611077565b005b34801561067f57600080fd5b506106b4600480360381019080803573ffffffffffffffffffffffffffffffffffffffff1690602001909291905050506110dc565b005b806005600082815260200190815260200160002060009054906101000a900473ffffffffffffffffffffffffffffffffffffffff1673ffffffffffffffffffffffffffffffffffffffff163373ffffffffffffffffffffffffffffffffffffffff1614151561072457600080fd5b826007600084815260200190815260200160002060006101000a81548173ffffffffffffffffffffffffffffffffffffffff021916908373ffffffffffffffffffffffffffffffffffffffff160217905550818373ffffffffffffffffffffffffffffffffffffffff163373ffffffffffffffffffffffffffffffffffffffff167f8c5be1e5ebec7d5bd14f71427d1e84f3dd0314c0f7b2291e5b200ac8c7c3b92560405160405180910390a4505050565b600854341415156107e657600080fd5b61081a60016004838154811015156107fa57fe5b90600052602060002090600702016002015461114390919063ffffffff16565b60048281548110151561082957fe5b90600052602060002090600702016002018190555050565b60048181548110151561085057fe5b9060005260206000209060070201600091509050806000018054600181600116156101000203166002900480601f0160208091040260200160405190810160405280929190818152602001828054600181600116156101000203166002900480156108fc5780601f106108d1576101008083540402835291602001916108fc565b820191906000526020600020905b8154815290600101906020018083116108df57829003601f168201915b5050505050908060010154908060020154908060030154908060040154908060050154908060060160009054906101000a900463ffffffff16908060060160049054906101000a900460ff16905088565b3373ffffffffffffffffffffffffffffffffffffffff166005600083815260200190815260200160002060009054906101000a900473ffffffffffffffffffffffffffffffffffffffff1673ffffffffffffffffffffffffffffffffffffffff161480610a1857503373ffffffffffffffffffffffffffffffffffffffff166007600083815260200190815260200160002060009054906101000a900473ffffffffffffffffffffffffffffffffffffffff1673ffffffffffffffffffffffffffffffffffffffff16145b1515610a2357600080fd5b610a2e83838361115f565b505050565b60008060009054906101000a900473ffffffffffffffffffffffffffffffffffffffff1673ffffffffffffffffffffffffffffffffffffffff163373ffffffffffffffffffffffffffffffffffffffff16141515610a9057600080fd5b6000809054906101000a900473ffffffffffffffffffffffffffffffffffffffff1690508073ffffffffffffffffffffffffffffffffffffffff166108fc3073ffffffffffffffffffffffffffffffffffffffff16319081150290604051600060405180830381858888f19350505050158015610b11573d6000803e3d6000fd5b5050565b606080600080600660008673ffffffffffffffffffffffffffffffffffffffff1673ffffffffffffffffffffffffffffffffffffffff16815260200190815260200160002054604051908082528060200260200182016040528015610b895781602001602082028038833980820191505090505b50925060009150600090505b600480549050811015610c3c578473ffffffffffffffffffffffffffffffffffffffff166005600083815260200190815260200160002060009054906101000a900473ffffffffffffffffffffffffffffffffffffffff1673ffffffffffffffffffffffffffffffffffffffff161415610c2f57808383815181101515610c1857fe5b906020019060200201818152505081806001019250505b8080600101915050610b95565b829350505050919050565b60056020528060005260406000206000915054906101000a900473ffffffffffffffffffffffffffffffffffffffff1681565b60148281600482815481101515610c8d57fe5b90600052602060002090600702016002015410151515610cac57600080fd5b836005600082815260200190815260200160002060009054906101000a900473ffffffffffffffffffffffffffffffffffffffff1673ffffffffffffffffffffffffffffffffffffffff163373ffffffffffffffffffffffffffffffffffffffff16141515610d1a57600080fd5b83600486815481101515610d2a57fe5b9060005260206000209060070201600101819055505050505050565b60006005600083815260200190815260200160002060009054906101000a900473ffffffffffffffffffffffffffffffffffffffff169050919050565b6000600660008373ffffffffffffffffffffffffffffffffffffffff1673ffffffffffffffffffffffffffffffffffffffff168152602001908152602001600020549050919050565b6000809054906101000a900473ffffffffffffffffffffffffffffffffffffffff1673ffffffffffffffffffffffffffffffffffffffff163373ffffffffffffffffffffffffffffffffffffffff16141515610e2757600080fd5b6000809054906101000a900473ffffffffffffffffffffffffffffffffffffffff1673ffffffffffffffffffffffffffffffffffffffff167ff8df31144d9c2f0f6b59d69b8b98abd5459d07f2742c4df920b25aae33c6482060405160405180910390a260008060006101000a81548173ffffffffffffffffffffffffffffffffffffffff021916908373ffffffffffffffffffffffffffffffffffffffff160217905550565b6000610ed98261133d565b9050606481811515610ee757fe5b0681039050610ef6828261142b565b5050565b6000809054906101000a900473ffffffffffffffffffffffffffffffffffffffff1681565b6060806000600480549050604051908082528060200260200182016040528015610f585781602001602082028038833980820191505090505b509150600090505b600480549050811015610f9757808282815181101515610f7c57fe5b90602001906020020181815250508080600101915050610f60565b819250505090565b60028381600482815481101515610fb257fe5b90600052602060002090600702016002015410151515610fd157600080fd5b846005600082815260200190815260200160002060009054906101000a900473ffffffffffffffffffffffffffffffffffffffff1673ffffffffffffffffffffffffffffffffffffffff163373ffffffffffffffffffffffffffffffffffffffff1614151561103f57600080fd5b848460048881548110151561105057fe5b9060005260206000209060070201600001919061106e92919061181c565b50505050505050565b6000809054906101000a900473ffffffffffffffffffffffffffffffffffffffff1673ffffffffffffffffffffffffffffffffffffffff163373ffffffffffffffffffffffffffffffffffffffff161415156110d257600080fd5b8060088190555050565b6000809054906101000a900473ffffffffffffffffffffffffffffffffffffffff1673ffffffffffffffffffffffffffffffffffffffff163373ffffffffffffffffffffffffffffffffffffffff1614151561113757600080fd5b61114081611709565b50565b6000818301905082811015151561115657fe5b80905092915050565b6111b26001600660008573ffffffffffffffffffffffffffffffffffffffff1673ffffffffffffffffffffffffffffffffffffffff1681526020019081526020016000205461114390919063ffffffff16565b600660008473ffffffffffffffffffffffffffffffffffffffff1673ffffffffffffffffffffffffffffffffffffffff168152602001908152602001600020819055506112486001600660003373ffffffffffffffffffffffffffffffffffffffff1673ffffffffffffffffffffffffffffffffffffffff1681526020019081526020016000205461180390919063ffffffff16565b600660003373ffffffffffffffffffffffffffffffffffffffff1673ffffffffffffffffffffffffffffffffffffffff16815260200190815260200160002081905550816005600083815260200190815260200160002060006101000a81548173ffffffffffffffffffffffffffffffffffffffff021916908373ffffffffffffffffffffffffffffffffffffffff160217905550808273ffffffffffffffffffffffffffffffffffffffff168473ffffffffffffffffffffffffffffffffffffffff167fddf252ad1be2c89b69c2b068fc378daa952ba7f163c4a11628f55a4df523b3ef60405160405180910390a4505050565b600080826040516020018082805190602001908083835b6020831015156113795780518252602082019150602081019050602083039250611354565b6001836020036101000a0380198251168184511680821785525050505050509050019150506040516020818303038152906040526040518082805190602001908083835b6020831015156113e257805182526020820191506020810190506020830392506113bd565b6001836020036101000a03801982511681845116808217855250505050505090500191505060405180910390206001900490506002548181151561142257fe5b06915050919050565b60008060048381151561143a57fe5b06600381111561144657fe5b9150600160046101006040519081016040528087815260200186815260200160018152602001600081526020016000815260200160008152602001600354420163ffffffff16815260200185600381111561149d57fe5b8152509080600181540180825580915050906001820390600052602060002090600702016000909192909190915060008201518160000190805190602001906114e792919061189c565b506020820151816001015560408201518160020155606082015181600301556080820151816004015560a0820151816005015560c08201518160060160006101000a81548163ffffffff021916908363ffffffff16021790555060e08201518160060160046101000a81548160ff0219169083600381111561156557fe5b02179055505050039050336005600083815260200190815260200160002060006101000a81548173ffffffffffffffffffffffffffffffffffffffff021916908373ffffffffffffffffffffffffffffffffffffffff1602179055506116146001600660003373ffffffffffffffffffffffffffffffffffffffff1673ffffffffffffffffffffffffffffffffffffffff1681526020019081526020016000205461114390919063ffffffff16565b600660003373ffffffffffffffffffffffffffffffffffffffff1673ffffffffffffffffffffffffffffffffffffffff168152602001908152602001600020819055507f88f026aacbbecc90c18411df4b1185fd8d9be2470f1962f192bf84a27d0704b78185856040518084815260200180602001838152602001828103825284818151815260200191508051906020019080838360005b838110156116c75780820151818401526020810190506116ac565b50505050905090810190601f1680156116f45780820380516001836020036101000a031916815260200191505b5094505050505060405180910390a150505050565b600073ffffffffffffffffffffffffffffffffffffffff168173ffffffffffffffffffffffffffffffffffffffff161415151561174557600080fd5b8073ffffffffffffffffffffffffffffffffffffffff166000809054906101000a900473ffffffffffffffffffffffffffffffffffffffff1673ffffffffffffffffffffffffffffffffffffffff167f8be0079c531659141344cd1fd0a4f28419497f9722a3daafe3b4186f6b6457e060405160405180910390a3806000806101000a81548173ffffffffffffffffffffffffffffffffffffffff021916908373ffffffffffffffffffffffffffffffffffffffff16021790555050565b600082821115151561181157fe5b818303905092915050565b828054600181600116156101000203166002900490600052602060002090601f016020900481019282601f1061185d57803560ff191683800117855561188b565b8280016001018555821561188b579182015b8281111561188a57823582559160200191906001019061186f565b5b509050611898919061191c565b5090565b828054600181600116156101000203166002900490600052602060002090601f016020900481019282601f106118dd57805160ff191683800117855561190b565b8280016001018555821561190b579182015b8281111561190a5782518255916020019190600101906118ef565b5b509050611918919061191c565b5090565b61193e91905b8082111561193a576000816000905550600101611922565b5090565b905600a165627a7a72305820d76846e93a03f5d14dd73db6610e48ce4af03b28d77abcb175529c66bc76dd630029",
  "source": "pragma solidity ^0.4.25;\n\nimport \"./zombiefeeding.sol\";\n\ncontract ZombieHelper is ZombieFeeding {\n\n  uint levelUpFee = 0.001 ether;\n  uint levelDownFee = 0.0001 ether;\n\n  modifier aboveLevel(uint _level, uint _zombieId) {\n    require(zombies[_zombieId].level >= _level);\n    _;\n  }\n\n  function withdraw() external onlyOwner {\n    address _owner = owner;\n    _owner.transfer(address(this).balance);\n  }\n\n  function setLevelUpFee(uint _fee) external onlyOwner {\n    levelUpFee = _fee;\n  }\n\n  function _levelUp(uint _zombieId) internal {\n    Zombie storage zombie = zombies[_zombieId];\n    uint experienceNeeded = 15 + zombie.level * zombie.level;\n    if (zombie.experience >= experienceNeeded) {\n      zombie.level = zombie.level.add(1);\n      zombie.experience = zombie.experience.sub(experienceNeeded);\n    }\n  }\n\n  function levelUp(uint _zombieId) external payable {\n    require(msg.value == levelUpFee);\n    zombies[_zombieId].level = zombies[_zombieId].level.add(1);\n  }\n\n\n\n  function changeName(uint _zombieId, string _newName) external aboveLevel(2, _zombieId) onlyOwnerOf(_zombieId) {\n    zombies[_zombieId].name = _newName;\n  }\n\n  function changeDna(uint _zombieId, uint _newDna) external aboveLevel(20, _zombieId) onlyOwnerOf(_zombieId) {\n    zombies[_zombieId].dna = _newDna;\n  }\n\n  function getZombiesByOwner(address _owner) external view returns(uint[]) {\n    uint[] memory result = new uint[](ownerZombieCount[_owner]);\n    uint counter = 0;\n    for (uint i = 0; i < zombies.length; i++) {\n      if (zombieToOwner[i] == _owner) {\n        result[counter] = i;\n        counter++;\n      }\n    }\n    return result;\n  }\n\n  function getAllZombies() external view returns(uint[]) {\n    uint[] memory result = new uint[](zombies.length);\n    for (uint i = 0; i < zombies.length; i++) {\n      result[i] = i;\n    }\n    return result;\n  }\n\n\n}\n",
  "sourcePath": "/Users/csuftitan/Documents/Cryptozombie demo package 2/contracts/zombiehelper.sol",
  "compiler": {
    "name": "solc",
    "version": "0.4.25+commit.59dbf8f1.Emscripten.clang"
  },
  "schemaVersion": "3.4.16",
  "updatedAt": "2025-10-19T19:38:25.515Z",
  "devdoc": {
    "methods": {
      "renounceOwnership()": {
        "details": "Allows the current owner to relinquish control of the contract."
      },
      "transferOwnership(address)": {
        "details": "Allows the current owner to transfer control of the contract to a newOwner.",
        "params": {
          "_newOwner": "The address to transfer ownership to."
        }
      }
    }
  },
  "userdoc": {
    "methods": {
      "renounceOwnership()": {
        "notice": "Renouncing to ownership will leave the contract without an owner. It will not be possible to call the functions with the `onlyOwner` modifier anymore."
      }
    }
  }
}