{
  "contractName": "ZombieHelper",
  "abi": [
    {
      "constant": true,
      "inputs": [
        {
          "name": "",
          "type": "uint256"
        }
      ],
      "name": "zombies",
      "outputs": [
        {
          "name": "name",
          "type": "string"
        },
        {
          "name": "dna",
          "type": "uint256"
        },
        {
          "name": "level",
          "type": "uint32"
        },
        {
          "name": "readyTime",
          "type": "uint32"
        },
        {
          "name": "winCount",
          "type": "uint16"
        },
        {
          "name": "lossCount",
          "type": "uint16"
        }
      ],
      "payable": false,
      "stateMutability": "view",
      "type": "function"
    },
    {
      "constant": true,
      "inputs": [
        {
          "name": "",
          "type": "uint256"
        }
      ],
      "name": "zombieToOwner",
      "outputs": [
        {
          "name": "",
          "type": "address"
        }
      ],
      "payable": false,
      "stateMutability": "view",
      "type": "function"
    },
    {
      "constant": false,
      "inputs": [],
      "name": "renounceOwnership",
      "outputs": [],
      "payable": false,
      "stateMutability": "nonpayable",
      "type": "function"
    },
    {
      "constant": false,
      "inputs": [
        {
          "name": "_name",
          "type": "string"
        }
      ],
      "name": "createRandomZombie",
      "outputs": [],
      "payable": false,
      "stateMutability": "nonpayable",
      "type": "function"
    },
    {
      "constant": true,
      "inputs": [],
      "name": "owner",
      "outputs": [
        {
          "name": "",
          "type": "address"
        }
      ],
      "payable": false,
      "stateMutability": "view",
      "type": "function"
    },
    {
      "constant": true,
      "inputs": [],
      "name": "isOwner",
      "outputs": [
        {
          "name": "",
          "type": "bool"
        }
      ],
      "payable": false,
      "stateMutability": "view",
      "type": "function"
    },
    {
      "constant": false,
      "inputs": [
        {
          "name": "newOwner",
          "type": "address"
        }
      ],
      "name": "transferOwnership",
      "outputs": [],
      "payable": false,
      "stateMutability": "nonpayable",
      "type": "function"
    },
    {
      "anonymous": false,
      "inputs": [
        {
          "indexed": false,
          "name": "zombieId",
          "type": "uint256"
        },
        {
          "indexed": false,
          "name": "name",
          "type": "string"
        },
        {
          "indexed": false,
          "name": "dna",
          "type": "uint256"
        }
      ],
      "name": "NewZombie",
      "type": "event"
    },
    {
      "anonymous": false,
      "inputs": [
        {
          "indexed": true,
          "name": "previousOwner",
          "type": "address"
        },
        {
          "indexed": true,
          "name": "newOwner",
          "type": "address"
        }
      ],
      "name": "OwnershipTransferred",
      "type": "event"
    },
    {
      "constant": false,
      "inputs": [],
      "name": "withdraw",
      "outputs": [],
      "payable": false,
      "stateMutability": "nonpayable",
      "type": "function"
    },
    {
      "constant": false,
      "inputs": [
        {
          "name": "_fee",
          "type": "uint256"
        }
      ],
      "name": "setLevelUpFee",
      "outputs": [],
      "payable": false,
      "stateMutability": "nonpayable",
      "type": "function"
    },
    {
      "constant": false,
      "inputs": [
        {
          "name": "_zombieId",
          "type": "uint256"
        }
      ],
      "name": "levelUp",
      "outputs": [],
      "payable": true,
      "stateMutability": "payable",
      "type": "function"
    },
    {
      "constant": false,
      "inputs": [
        {
          "name": "_zombieId",
          "type": "uint256"
        },
        {
          "name": "_newName",
          "type": "string"
        }
      ],
      "name": "changeName",
      "outputs": [],
      "payable": false,
      "stateMutability": "nonpayable",
      "type": "function"
    },
    {
      "constant": false,
      "inputs": [
        {
          "name": "_zombieId",
          "type": "uint256"
        },
        {
          "name": "_newDna",
          "type": "uint256"
        }
      ],
      "name": "changeDna",
      "outputs": [],
      "payable": false,
      "stateMutability": "nonpayable",
      "type": "function"
    },
    {
      "constant": true,
      "inputs": [
        {
          "name": "_owner",
          "type": "address"
        }
      ],
      "name": "getZombiesByOwner",
      "outputs": [
        {
          "name": "",
          "type": "uint256[]"
        }
      ],
      "payable": false,
      "stateMutability": "view",
      "type": "function"
    },
    {
      "constant": true,
      "inputs": [],
      "name": "getAllZombies",
      "outputs": [
        {
          "name": "",
          "type": "uint256[]"
        }
      ],
      "payable": false,
      "stateMutability": "view",
      "type": "function"
    }
  ],
  "bytecode": "0x60806040526010600155600154600a0a600255600160035566038d7ea4c68000600755655af3107a4000600855336000806101000a81548173ffffffffffffffffffffffffffffffffffffffff021916908373ffffffffffffffffffffffffffffffffffffffff1602179055506000809054906101000a900473ffffffffffffffffffffffffffffffffffffffff1673ffffffffffffffffffffffffffffffffffffffff16600073ffffffffffffffffffffffffffffffffffffffff167f8be0079c531659141344cd1fd0a4f28419497f9722a3daafe3b4186f6b6457e060405160405180910390a361135d806100f76000396000f3006080604052600436106100d0576000357c0100000000000000000000000000000000000000000000000000000000900463ffffffff1680630ce90ec2146100d55780632052465e146100f55780633ccfd60b146101e65780634412e104146101fd578063528b7b8f146102955780635faf288014610302578063715018a6146103395780637bff0a01146103505780638da5cb5b146103b95780638f32d59b14610410578063ab170a6d1461043f578063c39cbef1146104ab578063ccf670f8146104f0578063f2fde38b1461051d575b600080fd5b6100f360048036038101908080359060200190929190505050610560565b005b34801561010157600080fd5b50610120600480360381019080803590602001909291905050506105fb565b60405180806020018781526020018663ffffffff1663ffffffff1681526020018563ffffffff1663ffffffff1681526020018461ffff1661ffff1681526020018361ffff1661ffff168152602001828103825288818151815260200191508051906020019080838360005b838110156101a657808201518184015260208101905061018b565b50505050905090810190601f1680156101d35780820380516001836020036101000a031916815260200191505b5097505050505050505060405180910390f35b3480156101f257600080fd5b506101fb61071a565b005b34801561020957600080fd5b5061023e600480360381019080803573ffffffffffffffffffffffffffffffffffffffff16906020019092919050505061079a565b6040518080602001828103825283818151815260200191508051906020019060200280838360005b83811015610281578082015181840152602081019050610266565b505050509050019250505060405180910390f35b3480156102a157600080fd5b506102c0600480360381019080803590602001909291905050506108cc565b604051808273ffffffffffffffffffffffffffffffffffffffff1673ffffffffffffffffffffffffffffffffffffffff16815260200191505060405180910390f35b34801561030e57600080fd5b5061033760048036038101908080359060200190929190803590602001909291905050506108ff565b005b34801561034557600080fd5b5061034e6109e1565b005b34801561035c57600080fd5b506103b7600480360381019080803590602001908201803590602001908080601f0160208091040260200160405190810160405280939291908181526020018383808284378201915050505050509192919290505050610ab3565b005b3480156103c557600080fd5b506103ce610adf565b604051808273ffffffffffffffffffffffffffffffffffffffff1673ffffffffffffffffffffffffffffffffffffffff16815260200191505060405180910390f35b34801561041c57600080fd5b50610425610b08565b604051808215151515815260200191505060405180910390f35b34801561044b57600080fd5b50610454610b5f565b6040518080602001828103825283818151815260200191508051906020019060200280838360005b8381101561049757808201518184015260208101905061047c565b505050509050019250505060405180910390f35b3480156104b757600080fd5b506104ee60048036038101908080359060200190929190803590602001908201803590602001919091929391929390505050610bdf565b005b3480156104fc57600080fd5b5061051b60048036038101908080359060200190929190505050610ccd565b005b34801561052957600080fd5b5061055e600480360381019080803573ffffffffffffffffffffffffffffffffffffffff169060200190929190505050610cea565b005b6007543414151561057057600080fd5b6105ba600160048381548110151561058457fe5b906000526020600020906003020160020160009054906101000a900463ffffffff1663ffffffff16610d0990919063ffffffff16565b6004828154811015156105c957fe5b906000526020600020906003020160020160006101000a81548163ffffffff021916908363ffffffff16021790555050565b60048181548110151561060a57fe5b9060005260206000209060030201600091509050806000018054600181600116156101000203166002900480601f0160208091040260200160405190810160405280929190818152602001828054600181600116156101000203166002900480156106b65780601f1061068b576101008083540402835291602001916106b6565b820191906000526020600020905b81548152906001019060200180831161069957829003601f168201915b5050505050908060010154908060020160009054906101000a900463ffffffff16908060020160049054906101000a900463ffffffff16908060020160089054906101000a900461ffff169080600201600a9054906101000a900461ffff16905086565b6000610724610b08565b151561072f57600080fd5b610737610adf565b90508073ffffffffffffffffffffffffffffffffffffffff166108fc3073ffffffffffffffffffffffffffffffffffffffff16319081150290604051600060405180830381858888f19350505050158015610796573d6000803e3d6000fd5b5050565b606080600080600660008673ffffffffffffffffffffffffffffffffffffffff1673ffffffffffffffffffffffffffffffffffffffff1681526020019081526020016000205460405190808252806020026020018201604052801561080e5781602001602082028038833980820191505090505b50925060009150600090505b6004805490508110156108c1578473ffffffffffffffffffffffffffffffffffffffff166005600083815260200190815260200160002060009054906101000a900473ffffffffffffffffffffffffffffffffffffffff1673ffffffffffffffffffffffffffffffffffffffff1614156108b45780838381518110151561089d57fe5b906020019060200201818152505081806001019250505b808060010191505061081a565b829350505050919050565b60056020528060005260406000206000915054906101000a900473ffffffffffffffffffffffffffffffffffffffff1681565b6014828160048281548110151561091257fe5b906000526020600020906003020160020160009054906101000a900463ffffffff1663ffffffff161015151561094757600080fd5b836005600082815260200190815260200160002060009054906101000a900473ffffffffffffffffffffffffffffffffffffffff1673ffffffffffffffffffffffffffffffffffffffff163373ffffffffffffffffffffffffffffffffffffffff161415156109b557600080fd5b836004868154811015156109c557fe5b9060005260206000209060030201600101819055505050505050565b6109e9610b08565b15156109f457600080fd5b600073ffffffffffffffffffffffffffffffffffffffff166000809054906101000a900473ffffffffffffffffffffffffffffffffffffffff1673ffffffffffffffffffffffffffffffffffffffff167f8be0079c531659141344cd1fd0a4f28419497f9722a3daafe3b4186f6b6457e060405160405180910390a360008060006101000a81548173ffffffffffffffffffffffffffffffffffffffff021916908373ffffffffffffffffffffffffffffffffffffffff160217905550565b6000610abe82610d33565b9050606481811515610acc57fe5b0681039050610adb8282610e21565b5050565b60008060009054906101000a900473ffffffffffffffffffffffffffffffffffffffff16905090565b60008060009054906101000a900473ffffffffffffffffffffffffffffffffffffffff1673ffffffffffffffffffffffffffffffffffffffff163373ffffffffffffffffffffffffffffffffffffffff1614905090565b6060806000600480549050604051908082528060200260200182016040528015610b985781602001602082028038833980820191505090505b509150600090505b600480549050811015610bd757808282815181101515610bbc57fe5b90602001906020020181815250508080600101915050610ba0565b819250505090565b60028381600482815481101515610bf257fe5b906000526020600020906003020160020160009054906101000a900463ffffffff1663ffffffff1610151515610c2757600080fd5b846005600082815260200190815260200160002060009054906101000a900473ffffffffffffffffffffffffffffffffffffffff1673ffffffffffffffffffffffffffffffffffffffff163373ffffffffffffffffffffffffffffffffffffffff16141515610c9557600080fd5b8484600488815481101515610ca657fe5b90600052602060002090600302016000019190610cc492919061120c565b50505050505050565b610cd5610b08565b1515610ce057600080fd5b8060078190555050565b610cf2610b08565b1515610cfd57600080fd5b610d06816110f4565b50565b60008082840190508363ffffffff168163ffffffff1610151515610d2957fe5b8091505092915050565b600080826040516020018082805190602001908083835b602083101515610d6f5780518252602082019150602081019050602083039250610d4a565b6001836020036101000a0380198251168184511680821785525050505050509050019150506040516020818303038152906040526040518082805190602001908083835b602083101515610dd85780518252602082019150602081019050602083039250610db3565b6001836020036101000a038019825116818451168082178552505050505050905001915050604051809103902060019004905060025481811515610e1857fe5b06915050919050565b60006001600460c060405190810160405280868152602001858152602001600163ffffffff168152602001600354420163ffffffff168152602001600061ffff168152602001600061ffff16815250908060018154018082558091505090600182039060005260206000209060030201600090919290919091506000820151816000019080519060200190610eb792919061128c565b506020820151816001015560408201518160020160006101000a81548163ffffffff021916908363ffffffff16021790555060608201518160020160046101000a81548163ffffffff021916908363ffffffff16021790555060808201518160020160086101000a81548161ffff021916908361ffff16021790555060a082015181600201600a6101000a81548161ffff021916908361ffff1602179055505050039050336005600083815260200190815260200160002060006101000a81548173ffffffffffffffffffffffffffffffffffffffff021916908373ffffffffffffffffffffffffffffffffffffffff1602179055506110006001600660003373ffffffffffffffffffffffffffffffffffffffff1673ffffffffffffffffffffffffffffffffffffffff168152602001908152602001600020546111ee90919063ffffffff16565b600660003373ffffffffffffffffffffffffffffffffffffffff1673ffffffffffffffffffffffffffffffffffffffff168152602001908152602001600020819055507f88f026aacbbecc90c18411df4b1185fd8d9be2470f1962f192bf84a27d0704b78184846040518084815260200180602001838152602001828103825284818151815260200191508051906020019080838360005b838110156110b3578082015181840152602081019050611098565b50505050905090810190601f1680156110e05780820380516001836020036101000a031916815260200191505b5094505050505060405180910390a1505050565b600073ffffffffffffffffffffffffffffffffffffffff168173ffffffffffffffffffffffffffffffffffffffff161415151561113057600080fd5b8073ffffffffffffffffffffffffffffffffffffffff166000809054906101000a900473ffffffffffffffffffffffffffffffffffffffff1673ffffffffffffffffffffffffffffffffffffffff167f8be0079c531659141344cd1fd0a4f28419497f9722a3daafe3b4186f6b6457e060405160405180910390a3806000806101000a81548173ffffffffffffffffffffffffffffffffffffffff021916908373ffffffffffffffffffffffffffffffffffffffff16021790555050565b600080828401905083811015151561120257fe5b8091505092915050565b828054600181600116156101000203166002900490600052602060002090601f016020900481019282601f1061124d57803560ff191683800117855561127b565b8280016001018555821561127b579182015b8281111561127a57823582559160200191906001019061125f565b5b509050611288919061130c565b5090565b828054600181600116156101000203166002900490600052602060002090601f016020900481019282601f106112cd57805160ff19168380011785556112fb565b828001600101855582156112fb579182015b828111156112fa5782518255916020019190600101906112df565b5b509050611308919061130c565b5090565b61132e91905b8082111561132a576000816000905550600101611312565b5090565b905600a165627a7a7230582039c3551a39c317a657bc1d08cde0363652f6d5a8127d3c33f23eb0cca1bd1a220029",
  "source": "pragma solidity ^0.4.25;\n\nimport \"./zombiefeeding.sol\";\n\ncontract ZombieHelper is ZombieFeeding {\n\n  uint levelUpFee = 0.001 ether;\n  uint levelDownFee = 0.0001 ether;\n\n  modifier aboveLevel(uint _level, uint _zombieId) {\n    require(zombies[_zombieId].level >= _level);\n    _;\n  }\n\n  function withdraw() external onlyOwner {\n    address _owner = owner();\n    _owner.transfer(address(this).balance);\n  }\n\n  function setLevelUpFee(uint _fee) external onlyOwner {\n    levelUpFee = _fee;\n  }\n\n  function levelUp(uint _zombieId) external payable {\n    require(msg.value == levelUpFee);\n    zombies[_zombieId].level = zombies[_zombieId].level.add(1);\n  }\n\n\n\n  function changeName(uint _zombieId, string _newName) external aboveLevel(2, _zombieId) onlyOwnerOf(_zombieId) {\n    zombies[_zombieId].name = _newName;\n  }\n\n  function changeDna(uint _zombieId, uint _newDna) external aboveLevel(20, _zombieId) onlyOwnerOf(_zombieId) {\n    zombies[_zombieId].dna = _newDna;\n  }\n\n  function getZombiesByOwner(address _owner) external view returns(uint[]) {\n    uint[] memory result = new uint[](ownerZombieCount[_owner]);\n    uint counter = 0;\n    for (uint i = 0; i < zombies.length; i++) {\n      if (zombieToOwner[i] == _owner) {\n        result[counter] = i;\n        counter++;\n      }\n    }\n    return result;\n  }\n\n  function getAllZombies() external view returns(uint[]) {\n    uint[] memory result = new uint[](zombies.length);\n    for (uint i = 0; i < zombies.length; i++) {\n      result[i] = i;\n    }\n    return result;\n  }\n\n\n}\n",
  "sourcePath": "/Users/csuftitan/Documents/Cryptozombie demo package 2/contracts/zombiehelper.sol",
  "compiler": {
    "name": "solc",
    "version": "0.4.25+commit.59dbf8f1.Emscripten.clang"
  },
  "schemaVersion": "3.4.16",
  "updatedAt": "2025-10-19T09:30:42.499Z",
  "networkType": "ethereum",
  "devdoc": {
    "methods": {
      "isOwner()": {
        "return": "true if `msg.sender` is the owner of the contract."
      },
      "owner()": {
        "return": "the address of the owner."
      },
      "renounceOwnership()": {
        "details": "Allows the current owner to relinquish control of the contract."
      },
      "transferOwnership(address)": {
        "details": "Allows the current owner to transfer control of the contract to a newOwner.",
        "params": {
          "newOwner": "The address to transfer ownership to."
        }
      }
    }
  },
  "userdoc": {
    "methods": {
      "renounceOwnership()": {
        "notice": "Renouncing to ownership will leave the contract without an owner. It will not be possible to call the functions with the `onlyOwner` modifier anymore."
      }
    }
  }
}