{
  "contractName": "ZombieAttack",
  "abi": [
    {
      "constant": false,
      "inputs": [
        {
          "name": "_zombieId",
          "type": "uint256"
        }
      ],
      "name": "levelUp",
      "outputs": [],
      "payable": true,
      "stateMutability": "payable",
      "type": "function"
    },
    {
      "constant": false,
      "inputs": [
        {
          "name": "_zombieId",
          "type": "uint256"
        },
        {
          "name": "_kittyId",
          "type": "uint256"
        }
      ],
      "name": "feedOnKitty",
      "outputs": [],
      "payable": false,
      "stateMutability": "nonpayable",
      "type": "function"
    },
    {
      "constant": true,
      "inputs": [
        {
          "name": "",
          "type": "uint256"
        }
      ],
      "name": "zombies",
      "outputs": [
        {
          "name": "name",
          "type": "string"
        },
        {
          "name": "dna",
          "type": "uint256"
        },
        {
          "name": "level",
          "type": "uint32"
        },
        {
          "name": "readyTime",
          "type": "uint32"
        },
        {
          "name": "winCount",
          "type": "uint16"
        },
        {
          "name": "lossCount",
          "type": "uint16"
        }
      ],
      "payable": false,
      "stateMutability": "view",
      "type": "function"
    },
    {
      "constant": false,
      "inputs": [],
      "name": "withdraw",
      "outputs": [],
      "payable": false,
      "stateMutability": "nonpayable",
      "type": "function"
    },
    {
      "constant": true,
      "inputs": [
        {
          "name": "_owner",
          "type": "address"
        }
      ],
      "name": "getZombiesByOwner",
      "outputs": [
        {
          "name": "",
          "type": "uint256[]"
        }
      ],
      "payable": false,
      "stateMutability": "view",
      "type": "function"
    },
    {
      "constant": true,
      "inputs": [
        {
          "name": "",
          "type": "uint256"
        }
      ],
      "name": "zombieToOwner",
      "outputs": [
        {
          "name": "",
          "type": "address"
        }
      ],
      "payable": false,
      "stateMutability": "view",
      "type": "function"
    },
    {
      "constant": false,
      "inputs": [
        {
          "name": "_address",
          "type": "address"
        }
      ],
      "name": "setKittyContractAddress",
      "outputs": [],
      "payable": false,
      "stateMutability": "nonpayable",
      "type": "function"
    },
    {
      "constant": false,
      "inputs": [
        {
          "name": "_zombieId",
          "type": "uint256"
        },
        {
          "name": "_newDna",
          "type": "uint256"
        }
      ],
      "name": "changeDna",
      "outputs": [],
      "payable": false,
      "stateMutability": "nonpayable",
      "type": "function"
    },
    {
      "constant": false,
      "inputs": [],
      "name": "renounceOwnership",
      "outputs": [],
      "payable": false,
      "stateMutability": "nonpayable",
      "type": "function"
    },
    {
      "constant": false,
      "inputs": [
        {
          "name": "_name",
          "type": "string"
        }
      ],
      "name": "createRandomZombie",
      "outputs": [],
      "payable": false,
      "stateMutability": "nonpayable",
      "type": "function"
    },
    {
      "constant": true,
      "inputs": [],
      "name": "owner",
      "outputs": [
        {
          "name": "",
          "type": "address"
        }
      ],
      "payable": false,
      "stateMutability": "view",
      "type": "function"
    },
    {
      "constant": true,
      "inputs": [],
      "name": "isOwner",
      "outputs": [
        {
          "name": "",
          "type": "bool"
        }
      ],
      "payable": false,
      "stateMutability": "view",
      "type": "function"
    },
    {
      "constant": false,
      "inputs": [
        {
          "name": "_zombieId",
          "type": "uint256"
        },
        {
          "name": "_newName",
          "type": "string"
        }
      ],
      "name": "changeName",
      "outputs": [],
      "payable": false,
      "stateMutability": "nonpayable",
      "type": "function"
    },
    {
      "constant": false,
      "inputs": [
        {
          "name": "_fee",
          "type": "uint256"
        }
      ],
      "name": "setLevelUpFee",
      "outputs": [],
      "payable": false,
      "stateMutability": "nonpayable",
      "type": "function"
    },
    {
      "constant": false,
      "inputs": [
        {
          "name": "_zombieId",
          "type": "uint256"
        }
      ],
      "name": "levelDown",
      "outputs": [],
      "payable": true,
      "stateMutability": "payable",
      "type": "function"
    },
    {
      "constant": false,
      "inputs": [
        {
          "name": "newOwner",
          "type": "address"
        }
      ],
      "name": "transferOwnership",
      "outputs": [],
      "payable": false,
      "stateMutability": "nonpayable",
      "type": "function"
    },
    {
      "anonymous": false,
      "inputs": [
        {
          "indexed": false,
          "name": "zombieId",
          "type": "uint256"
        },
        {
          "indexed": false,
          "name": "name",
          "type": "string"
        },
        {
          "indexed": false,
          "name": "dna",
          "type": "uint256"
        }
      ],
      "name": "NewZombie",
      "type": "event"
    },
    {
      "anonymous": false,
      "inputs": [
        {
          "indexed": true,
          "name": "previousOwner",
          "type": "address"
        },
        {
          "indexed": true,
          "name": "newOwner",
          "type": "address"
        }
      ],
      "name": "OwnershipTransferred",
      "type": "event"
    },
    {
      "constant": false,
      "inputs": [
        {
          "name": "_zombieId",
          "type": "uint256"
        },
        {
          "name": "_targetId",
          "type": "uint256"
        }
      ],
      "name": "attack",
      "outputs": [],
      "payable": false,
      "stateMutability": "nonpayable",
      "type": "function"
    }
  ],
  "bytecode": "0x60806040526010600155600154600a0a600255600160035566038d7ea4c68000600855655af3107a40006009556000600a556046600b55336000806101000a81548173ffffffffffffffffffffffffffffffffffffffff021916908373ffffffffffffffffffffffffffffffffffffffff1602179055506000809054906101000a900473ffffffffffffffffffffffffffffffffffffffff1673ffffffffffffffffffffffffffffffffffffffff16600073ffffffffffffffffffffffffffffffffffffffff167f8be0079c531659141344cd1fd0a4f28419497f9722a3daafe3b4186f6b6457e060405160405180910390a3611cdd806101016000396000f3006080604052600436106100f1576000357c0100000000000000000000000000000000000000000000000000000000900463ffffffff1680630ce90ec2146100f657806317a7f4cc146101165780632052465e1461014d5780633ccfd60b1461023e5780634412e10414610255578063528b7b8f146102ed5780635f4623f11461035a5780635faf28801461039d578063715018a6146103d45780637bff0a01146103eb5780638da5cb5b146104545780638f32d59b146104ab578063c39cbef1146104da578063ccf670f81461051f578063e14d2cee1461054c578063e1fa76381461056c578063f2fde38b146105a3575b600080fd5b610114600480360381019080803590602001909291905050506105e6565b005b34801561012257600080fd5b5061014b6004803603810190808035906020019092919080359060200190929190505050610681565b005b34801561015957600080fd5b506101786004803603810190808035906020019092919050505061082a565b60405180806020018781526020018663ffffffff1663ffffffff1681526020018563ffffffff1663ffffffff1681526020018461ffff1661ffff1681526020018361ffff1661ffff168152602001828103825288818151815260200191508051906020019080838360005b838110156101fe5780820151818401526020810190506101e3565b50505050905090810190601f16801561022b5780820380516001836020036101000a031916815260200191505b5097505050505050505060405180910390f35b34801561024a57600080fd5b50610253610949565b005b34801561026157600080fd5b50610296600480360381019080803573ffffffffffffffffffffffffffffffffffffffff1690602001909291905050506109c9565b6040518080602001828103825283818151815260200191508051906020019060200280838360005b838110156102d95780820151818401526020810190506102be565b505050509050019250505060405180910390f35b3480156102f957600080fd5b5061031860048036038101908080359060200190929190505050610afb565b604051808273ffffffffffffffffffffffffffffffffffffffff1673ffffffffffffffffffffffffffffffffffffffff16815260200191505060405180910390f35b34801561036657600080fd5b5061039b600480360381019080803573ffffffffffffffffffffffffffffffffffffffff169060200190929190505050610b2e565b005b3480156103a957600080fd5b506103d26004803603810190808035906020019092919080359060200190929190505050610b85565b005b3480156103e057600080fd5b506103e9610c67565b005b3480156103f757600080fd5b50610452600480360381019080803590602001908201803590602001908080601f0160208091040260200160405190810160405280939291908181526020018383808284378201915050505050509192919290505050610d39565b005b34801561046057600080fd5b50610469610d65565b604051808273ffffffffffffffffffffffffffffffffffffffff1673ffffffffffffffffffffffffffffffffffffffff16815260200191505060405180910390f35b3480156104b757600080fd5b506104c0610d8e565b604051808215151515815260200191505060405180910390f35b3480156104e657600080fd5b5061051d60048036038101908080359060200190929190803590602001908201803590602001919091929391929390505050610de5565b005b34801561052b57600080fd5b5061054a60048036038101908080359060200190929190505050610ed3565b005b61056a60048036038101908080359060200190929190505050610ef0565b005b34801561057857600080fd5b506105a16004803603810190808035906020019092919080359060200190929190505050610f8b565b005b3480156105af57600080fd5b506105e4600480360381019080803573ffffffffffffffffffffffffffffffffffffffff16906020019092919050505061121e565b005b600854341415156105f657600080fd5b610640600160048381548110151561060a57fe5b906000526020600020906003020160020160009054906101000a900463ffffffff1663ffffffff1661123d90919063ffffffff16565b60048281548110151561064f57fe5b906000526020600020906003020160020160006101000a81548163ffffffff021916908363ffffffff16021790555050565b6000600760009054906101000a900473ffffffffffffffffffffffffffffffffffffffff1673ffffffffffffffffffffffffffffffffffffffff1663e98b7f4d836040518263ffffffff167c01000000000000000000000000000000000000000000000000000000000281526004018082815260200191505061014060405180830381600087803b15801561071557600080fd5b505af1158015610729573d6000803e3d6000fd5b505050506040513d61014081101561074057600080fd5b81019080805190602001909291908051906020019092919080519060200190929190805190602001909291908051906020019092919080519060200190929190805190602001909291908051906020019092919080519060200190929190805190602001909291905050509091929394959697985090919293949596975090919293949596509091929394955090919293945090919293509091925090915090508091505061082583826040805190810160405280600581526020017f6b69747479000000000000000000000000000000000000000000000000000000815250611267565b505050565b60048181548110151561083957fe5b9060005260206000209060030201600091509050806000018054600181600116156101000203166002900480601f0160208091040260200160405190810160405280929190818152602001828054600181600116156101000203166002900480156108e55780601f106108ba576101008083540402835291602001916108e5565b820191906000526020600020905b8154815290600101906020018083116108c857829003601f168201915b5050505050908060010154908060020160009054906101000a900463ffffffff16908060020160049054906101000a900463ffffffff16908060020160089054906101000a900461ffff169080600201600a9054906101000a900461ffff16905086565b6000610953610d8e565b151561095e57600080fd5b610966610d65565b90508073ffffffffffffffffffffffffffffffffffffffff166108fc3073ffffffffffffffffffffffffffffffffffffffff16319081150290604051600060405180830381858888f193505050501580156109c5573d6000803e3d6000fd5b5050565b606080600080600660008673ffffffffffffffffffffffffffffffffffffffff1673ffffffffffffffffffffffffffffffffffffffff16815260200190815260200160002054604051908082528060200260200182016040528015610a3d5781602001602082028038833980820191505090505b50925060009150600090505b600480549050811015610af0578473ffffffffffffffffffffffffffffffffffffffff166005600083815260200190815260200160002060009054906101000a900473ffffffffffffffffffffffffffffffffffffffff1673ffffffffffffffffffffffffffffffffffffffff161415610ae357808383815181101515610acc57fe5b906020019060200201818152505081806001019250505b8080600101915050610a49565b829350505050919050565b60056020528060005260406000206000915054906101000a900473ffffffffffffffffffffffffffffffffffffffff1681565b610b36610d8e565b1515610b4157600080fd5b80600760006101000a81548173ffffffffffffffffffffffffffffffffffffffff021916908373ffffffffffffffffffffffffffffffffffffffff16021790555050565b60148281600482815481101515610b9857fe5b906000526020600020906003020160020160009054906101000a900463ffffffff1663ffffffff1610151515610bcd57600080fd5b836005600082815260200190815260200160002060009054906101000a900473ffffffffffffffffffffffffffffffffffffffff1673ffffffffffffffffffffffffffffffffffffffff163373ffffffffffffffffffffffffffffffffffffffff16141515610c3b57600080fd5b83600486815481101515610c4b57fe5b9060005260206000209060030201600101819055505050505050565b610c6f610d8e565b1515610c7a57600080fd5b600073ffffffffffffffffffffffffffffffffffffffff166000809054906101000a900473ffffffffffffffffffffffffffffffffffffffff1673ffffffffffffffffffffffffffffffffffffffff167f8be0079c531659141344cd1fd0a4f28419497f9722a3daafe3b4186f6b6457e060405160405180910390a360008060006101000a81548173ffffffffffffffffffffffffffffffffffffffff021916908373ffffffffffffffffffffffffffffffffffffffff160217905550565b6000610d4482611514565b9050606481811515610d5257fe5b0681039050610d618282611602565b5050565b60008060009054906101000a900473ffffffffffffffffffffffffffffffffffffffff16905090565b60008060009054906101000a900473ffffffffffffffffffffffffffffffffffffffff1673ffffffffffffffffffffffffffffffffffffffff163373ffffffffffffffffffffffffffffffffffffffff1614905090565b60028381600482815481101515610df857fe5b906000526020600020906003020160020160009054906101000a900463ffffffff1663ffffffff1610151515610e2d57600080fd5b846005600082815260200190815260200160002060009054906101000a900473ffffffffffffffffffffffffffffffffffffffff1673ffffffffffffffffffffffffffffffffffffffff163373ffffffffffffffffffffffffffffffffffffffff16141515610e9b57600080fd5b8484600488815481101515610eac57fe5b90600052602060002090600302016000019190610eca929190611b8c565b50505050505050565b610edb610d8e565b1515610ee657600080fd5b8060088190555050565b60095434141515610f0057600080fd5b610f4a6001600483815481101515610f1457fe5b906000526020600020906003020160020160009054906101000a900463ffffffff1663ffffffff166118d590919063ffffffff16565b600482815481101515610f5957fe5b906000526020600020906003020160020160006101000a81548163ffffffff021916908363ffffffff16021790555050565b6000806000846005600082815260200190815260200160002060009054906101000a900473ffffffffffffffffffffffffffffffffffffffff1673ffffffffffffffffffffffffffffffffffffffff163373ffffffffffffffffffffffffffffffffffffffff16141515610ffe57600080fd5b60048681548110151561100d57fe5b9060005260206000209060030201935060048581548110151561102c57fe5b9060005260206000209060030201925061104660646118fa565b9150600b548211151561117c5761107d60018560020160089054906101000a900461ffff1661ffff166119fd90919063ffffffff16565b8460020160086101000a81548161ffff021916908361ffff1602179055506110c960018560020160009054906101000a900463ffffffff1663ffffffff1661123d90919063ffffffff16565b8460020160006101000a81548163ffffffff021916908363ffffffff160217905550611115600184600201600a9054906101000a900461ffff1661ffff166119fd90919063ffffffff16565b83600201600a6101000a81548161ffff021916908361ffff1602179055506111778684600101546040805190810160405280600681526020017f7a6f6d6269650000000000000000000000000000000000000000000000000000815250611267565b611216565b6111a6600185600201600a9054906101000a900461ffff1661ffff166119fd90919063ffffffff16565b84600201600a6101000a81548161ffff021916908361ffff1602179055506111ee60018460020160089054906101000a900461ffff1661ffff166119fd90919063ffffffff16565b8360020160086101000a81548161ffff021916908361ffff16021790555061121584611a23565b5b505050505050565b611226610d8e565b151561123157600080fd5b61123a81611a4d565b50565b60008082840190508363ffffffff168163ffffffff161015151561125d57fe5b8091505092915050565b600080846005600082815260200190815260200160002060009054906101000a900473ffffffffffffffffffffffffffffffffffffffff1673ffffffffffffffffffffffffffffffffffffffff163373ffffffffffffffffffffffffffffffffffffffff161415156112d857600080fd5b6004868154811015156112e757fe5b9060005260206000209060030201925061130083611b47565b151561130b57600080fd5b6002548581151561131857fe5b06945060028584600101540181151561132d57fe5b04915060405160200180807f6b6974747900000000000000000000000000000000000000000000000000000081525060050190506040516020818303038152906040526040518082805190602001908083835b6020831015156113a55780518252602082019150602081019050602083039250611380565b6001836020036101000a038019825116818451168082178552505050505050905001915050604051809103902060001916846040516020018082805190602001908083835b60208310151561140f57805182526020820191506020810190506020830392506113ea565b6001836020036101000a0380198251168184511680821785525050505050509050019150506040516020818303038152906040526040518082805190602001908083835b6020831015156114785780518252602082019150602081019050602083039250611453565b6001836020036101000a03801982511681845116808217855250505050505090500191505060405180910390206000191614156114c45760636064838115156114bd57fe5b0683030191505b6115036040805190810160405280600681526020017f4e6f4e616d65000000000000000000000000000000000000000000000000000081525083611602565b61150c83611a23565b505050505050565b600080826040516020018082805190602001908083835b602083101515611550578051825260208201915060208101905060208303925061152b565b6001836020036101000a0380198251168184511680821785525050505050509050019150506040516020818303038152906040526040518082805190602001908083835b6020831015156115b95780518252602082019150602081019050602083039250611594565b6001836020036101000a0380198251168184511680821785525050505050509050019150506040518091039020600190049050600254818115156115f957fe5b06915050919050565b60006001600460c060405190810160405280868152602001858152602001600163ffffffff168152602001600354420163ffffffff168152602001600061ffff168152602001600061ffff16815250908060018154018082558091505090600182039060005260206000209060030201600090919290919091506000820151816000019080519060200190611698929190611c0c565b506020820151816001015560408201518160020160006101000a81548163ffffffff021916908363ffffffff16021790555060608201518160020160046101000a81548163ffffffff021916908363ffffffff16021790555060808201518160020160086101000a81548161ffff021916908361ffff16021790555060a082015181600201600a6101000a81548161ffff021916908361ffff1602179055505050039050336005600083815260200190815260200160002060006101000a81548173ffffffffffffffffffffffffffffffffffffffff021916908373ffffffffffffffffffffffffffffffffffffffff1602179055506117e16001600660003373ffffffffffffffffffffffffffffffffffffffff1673ffffffffffffffffffffffffffffffffffffffff16815260200190815260200160002054611b6e90919063ffffffff16565b600660003373ffffffffffffffffffffffffffffffffffffffff1673ffffffffffffffffffffffffffffffffffffffff168152602001908152602001600020819055507f88f026aacbbecc90c18411df4b1185fd8d9be2470f1962f192bf84a27d0704b78184846040518084815260200180602001838152602001828103825284818151815260200191508051906020019080838360005b83811015611894578082015181840152602081019050611879565b50505050905090810190601f1680156118c15780820380516001836020036101000a031916815260200191505b5094505050505060405180910390a1505050565b60008263ffffffff168263ffffffff16111515156118ef57fe5b818303905092915050565b60006119126001600a54611b6e90919063ffffffff16565b600a81905550814233600a54604051602001808481526020018373ffffffffffffffffffffffffffffffffffffffff1673ffffffffffffffffffffffffffffffffffffffff166c0100000000000000000000000002815260140182815260200193505050506040516020818303038152906040526040518082805190602001908083835b6020831015156119bb5780518252602082019150602081019050602083039250611996565b6001836020036101000a0380198251168184511680821785525050505050509050019150506040518091039020600190048115156119f557fe5b069050919050565b60008082840190508361ffff168161ffff1610151515611a1957fe5b8091505092915050565b60035442018160020160046101000a81548163ffffffff021916908363ffffffff16021790555050565b600073ffffffffffffffffffffffffffffffffffffffff168173ffffffffffffffffffffffffffffffffffffffff1614151515611a8957600080fd5b8073ffffffffffffffffffffffffffffffffffffffff166000809054906101000a900473ffffffffffffffffffffffffffffffffffffffff1673ffffffffffffffffffffffffffffffffffffffff167f8be0079c531659141344cd1fd0a4f28419497f9722a3daafe3b4186f6b6457e060405160405180910390a3806000806101000a81548173ffffffffffffffffffffffffffffffffffffffff021916908373ffffffffffffffffffffffffffffffffffffffff16021790555050565b6000428260020160049054906101000a900463ffffffff1663ffffffff1611159050919050565b6000808284019050838110151515611b8257fe5b8091505092915050565b828054600181600116156101000203166002900490600052602060002090601f016020900481019282601f10611bcd57803560ff1916838001178555611bfb565b82800160010185558215611bfb579182015b82811115611bfa578235825591602001919060010190611bdf565b5b509050611c089190611c8c565b5090565b828054600181600116156101000203166002900490600052602060002090601f016020900481019282601f10611c4d57805160ff1916838001178555611c7b565b82800160010185558215611c7b579182015b82811115611c7a578251825591602001919060010190611c5f565b5b509050611c889190611c8c565b5090565b611cae91905b80821115611caa576000816000905550600101611c92565b5090565b905600a165627a7a7230582064ba79d968dc53fe15abcf8dcaffd7719fa9dbf5b9ebc118ed509befaf54eb7d0029",
  "source": "pragma solidity ^0.4.25;\n\nimport \"./zombiehelper.sol\";\n\ncontract ZombieAttack is ZombieHelper {\n  uint randNonce = 0;\n  uint attackVictoryProbability = 70;\n\n  function randMod(uint _modulus) internal returns(uint) {\n    randNonce = randNonce.add(1);\n    return uint(keccak256(abi.encodePacked(now, msg.sender, randNonce))) % _modulus;\n  }\n\n  function attack(uint _zombieId, uint _targetId) external onlyOwnerOf(_zombieId) {\n    Zombie storage myZombie = zombies[_zombieId];\n    Zombie storage enemyZombie = zombies[_targetId];\n    uint rand = randMod(100);\n    if (rand <= attackVictoryProbability) {\n      myZombie.winCount = myZombie.winCount.add(1);\n      myZombie.level = myZombie.level.add(1);\n      enemyZombie.lossCount = enemyZombie.lossCount.add(1);\n      feedAndMultiply(_zombieId, enemyZombie.dna, \"zombie\");\n    } else {\n      myZombie.lossCount = myZombie.lossCount.add(1);\n      enemyZombie.winCount = enemyZombie.winCount.add(1);\n      _triggerCooldown(myZombie);\n    }\n  }\n}\n",
  "sourcePath": "/Users/csuftitan/Documents/Cryptozombie demo package 2/contracts/zombieattack.sol",
  "compiler": {
    "name": "solc",
    "version": "0.4.25+commit.59dbf8f1.Emscripten.clang"
  },
  "schemaVersion": "3.4.16",
  "updatedAt": "2025-10-19T02:33:51.673Z",
  "networkType": "ethereum",
  "devdoc": {
    "methods": {
      "isOwner()": {
        "return": "true if `msg.sender` is the owner of the contract."
      },
      "owner()": {
        "return": "the address of the owner."
      },
      "renounceOwnership()": {
        "details": "Allows the current owner to relinquish control of the contract."
      },
      "transferOwnership(address)": {
        "details": "Allows the current owner to transfer control of the contract to a newOwner.",
        "params": {
          "newOwner": "The address to transfer ownership to."
        }
      }
    }
  },
  "userdoc": {
    "methods": {
      "renounceOwnership()": {
        "notice": "Renouncing to ownership will leave the contract without an owner. It will not be possible to call the functions with the `onlyOwner` modifier anymore."
      }
    }
  }
}